:1000000009C021C020C01FC01EC01DC01CC01BC015
:100010002CC119C011241FBECFE9CDBF10E0A0E64E
:10002000B0E0E0E5F3E002C005900D92A038B10722
:10003000D9F720E0A0E8B0E001C01D92AC38B207CB
:10004000E1F72AD183C1DCCFF894BB9AC39808B2F8
:1000500093E0262F2A95F1F780FB03F89695879574
:1000600008BAB9F71895CF93DF93EC0188818823FC
:1000700031F021966BE0E8DF89918111FBCFDF91B0
:10008000CF9108950F931F93CF93DF938C01CCE012
:10009000D0E0C8010C2E02C0969587950A94E2F72D
:1000A0008F708A3010F4805D01C0895C6BE0CCDF1A
:1000B0002497CC3F8FEFD80761F7DF91CF911F9145
:1000C0000F91089597B3916197BB882391F098E2BF
:1000D000C098C49A20E12A95F1F7C09A20E12A95A8
:1000E000F1F7191614F4915002C0815098E2811171
:1000F000EFCF87B38E7E87BB089597B3966097BB8B
:10010000882391F098E2C198C29A20E12A95F1F7EC
:10011000C19A20E12A95F1F7191614F4915002C002
:10012000815098E28111EFCF87B3897F87BB089513
:100130001092870010928600109285001092840021
:1001400087B3816187BB87B3866087BBC498C29839
:10015000C09AC19A80E68A95F1F787B38C7F87BBF6
:1001600088B38C7F88BB86B3837009F126B38091F6
:10017000860090918700422F417050E0840F951FB8
:10018000909387008093860026B38091840090919D
:1001900085002270820F911D9093850080938400CA
:1001A00083E08A95F1F7000086B38370F9F6209119
:1001B000860030918700809184009091850082179D
:1001C000930728F480918400909185000895809190
:1001D000860090918700089585B7877E806185BFEE
:1001E00085B7806285BF7894889585B78F7D85BFF8
:1001F00008950F931F93E82F0091800010918100C4
:1002000020918200309183000115110521053105EF
:10021000E9F0D901C8010E2E04C0880F991FAA1F4A
:10022000BB1F0A94D2F7AB0160E070E0401B510B9A
:10023000620B730B840F951FA61FB71F04C0B695E2
:10024000A79597958795EA95D2F704C088EE93E035
:10025000A0E0B0E08093800090938100A0938200A2
:10026000B09383001F910F9108951F920F920FB6C4
:100270000F9211248F939F9380918A0090918B000D
:10028000019690938B0080938A009F918F910F909D
:100290000FBE0F901F90189580E690E0E4DED8E145
:1002A000C8E2F894A8950FB6F894A895D1BD0FBEF2
:1002B000C1BD84B7877F84BF81B5806D81BD81B5A5
:1002C000877F81BD789488DFF89432DFBC0183E0BA
:1002D00090DF909389008093880087E690E0C3DEEA
:1002E00080918A0090918B00CDDE8CE690E0BBDEA1
:1002F0008091880090918900C5DE87E790E0B3DEA9
:100300008091860090918700BDDE8BE790E0ABDEA8
:100310008091840090918500B5DE85E690E0A3DEB3
:100320008091880090918900893E934008F4B9CF6C
:1003300088ECC8DE8FEF9FEE20E081509040204097
:10034000E1F700C0000080E5D8DEABCFF894FFCF26
:100350000A696E69740A007764743D000964617209
:100360006B6E6573733D00094C3D0009523D000002
:00000001FF
